:100000000C942A000C9452010C943C000C943C007B
:100010000C943C000C943B010C943C000C943C0070
:100020000C943C000C943C000C943C000C94EB00B1
:100030000C943C000C943C000C943C000C943C0050
:100040000C943C000C943C000C943C000C943C0040
:100050000C943C0011241FBECFE5D8E0DEBFCDBF1D
:1000600020E0A0E6B0E001C01D92A836B207E1F79B
:100070000E94AD010C94AE030C94000041E060E0DE
:1000800080E00E94B20141E060E081E00E94B201A4
:1000900041E060E082E00E94B20141E061E080E086
:1000A0000E94B20141E061E081E00E94B20141E0C2
:1000B00061E082E00E94B20163E082E00E949E0162
:1000C0008FB780688FBF85B7816085BF85B78D7F0B
:1000D00085BF8BB780648BBF89B7816089BF89B7C3
:1000E000806489BF80E00E94FE0280E00E94550388
:1000F00067EF82E00E9413030895809162008430CC
:1001000018F010926200F9CF813011F130F0823096
:1001100099F1833009F44BC0F0CF60E080E00E9499
:10012000A20160E081E00E94A60160E082E00E94FE
:10013000A60161E080E00E94A60161E081E00E94EA
:10014000A60161E082E00E94A20110926100D5CF79
:1001500081E08093610060E080E00E94A60160E0A1
:1001600082E00E94A60161E080E00E94A60161E0B9
:1001700082E00E94A601C1CF60E080E00E94A6015B
:1001800060E081E00E94A60160E082E00E94A2019E
:1001900061E080E00E94A20161E081E00E94A6018E
:1001A00061E082E00E94A60110926100A6CF81E08A
:1001B0008093610060E080E00E94A60160E082E040
:1001C0000E94A60161E080E00E94A60161E082E059
:1001D0000E94A60192CF1F920F920FB60F92112488
:1001E0002F933F934F935F936F937F938F939F933F
:1001F000AF93BF93EF93FF9380916500909166005A
:100200008E33910530F401969093660080936500DB
:1002100021C0CE97F8F0809167008F5F80936700D0
:1002200080916100813039F460E00E94AA0161E0B0
:1002300081E00E94AA0180916700853039F48091A5
:1002400062008F5F809362001092670010926600D8
:1002500010926500FF91EF91BF91AF919F918F91A7
:100260007F916F915F914F913F912F910F900FBEB2
:100270000F901F9018951F920F920FB60F92112496
:100280008F939F9380916300909164000196909367
:100290006400809363009F918F910F900FBE0F9029
:1002A0001F9018951F920F920FB60F9211242F9343
:1002B0003F934F935F936F937F938F939F93AF93EE
:1002C000BF93EF93FF93809160008F5F80936000F6
:1002D000813019F0823031F020C06FE282E00E945C
:1002E0006A031BC080916300909164004F9768F48B
:1002F00080916200811109C08F5F8093620010922B
:10030000670010926600109265000E94AC03109284
:1003100064001092630010926000FF91EF91BF9112
:10032000AF919F918F917F916F915F914F913F918D
:100330002F910F900FBE0F901F90189540E00E94D4
:10034000B201089541E00E943802089540E00E9401
:10035000380208950E94BE0208950E943E000E9445
:100360007D00FDCF643008F082C0883008F07FC087
:100370004130E1F5613099F028F06230E9F0633006
:1003800041F108954AB321E030E0B90102C0660F9F
:10039000771F8A95E2F7CB01842B8ABB089547B378
:1003A00021E030E0B90102C0660F771F8A95E2F7BD
:1003B000CB01842B87BB089544B321E030E0B90121
:1003C00002C0660F771F8A95E2F7CB01842B84BBAE
:1003D000089541B321E030E0B90102C0660F771FF4
:1003E0008A95E2F7CB01842B81BB089541113FC070
:1003F0006130A1F028F06230F9F0633059F10895CE
:100400004AB321E030E0B90102C0660F771F8A9538
:10041000E2F7CB01809584238ABB089547B321E09E
:1004200030E0B90102C0660F771F8A95E2F7CB0171
:100430008095842387BB089544B321E030E0B9015F
:1004400002C0660F771F8A95E2F7CB01809584235F
:1004500084BB089541B321E030E0B90102C0660FCA
:10046000771F8A95E2F7CB018095842381BB08959D
:10047000643008F082C0883008F07FC04130E1F578
:10048000613099F028F06230E9F0633041F108956D
:100490004BB321E030E0B90102C0660F771F8A95A7
:1004A000E2F7CB01842B8BBB089548B321E030E009
:1004B000B90102C0660F771F8A95E2F7CB01842B42
:1004C00088BB089545B321E030E0B90102C0660F52
:1004D000771F8A95E2F7CB01842B85BB089542B341
:1004E00021E030E0B90102C0660F771F8A95E2F77C
:1004F000CB01842B82BB089541113FC06130A1F034
:1005000028F06230F9F0633059F108954BB321E0DF
:1005100030E0B90102C0660F771F8A95E2F7CB0180
:10052000809584238BBB089548B321E030E0B90166
:1005300002C0660F771F8A95E2F7CB01809584236E
:1005400088BB089545B321E030E0B90102C0660FD1
:10055000771F8A95E2F7CB018095842385BB0895A8
:1005600042B321E030E0B90102C0660F771F8A95DF
:10057000E2F7CB018095842382BB08956430E8F5CF
:100580008830D8F5613099F028F06230E9F06330B6
:1005900041F108954BB321E030E0B90102C0660F8C
:1005A000771F8A95E2F7CB0184278BBB089548B368
:1005B00021E030E0B90102C0660F771F8A95E2F7AB
:1005C000CB01842788BB089545B321E030E0B90111
:1005D00002C0660F771F8A95E2F7CB01842785BB9F
:1005E000089542B321E030E0B90102C0660F771FE1
:1005F0008A95E2F7CB01842782BB0895843090F47A
:10060000813041F028F0823041F0833049F0089584
:1006100013BE089580E483BF089588E083BF0895E2
:1006200088E483BF089562BF8530F0F58230F9F029
:1006300028F4882341F0813081F00895833009F156
:10064000843049F1089583B7816083BF83B78D7F7C
:1006500083BF83B78B7F83BF089583B78E7F83BFAC
:1006600083B7826083BF83B78B7F83BF089583B7CF
:10067000816083BF83B7826083BF83B78B7F83BF73
:10068000089583B78E7F83BF83B78D7F83BF83B782
:10069000846083BF089583B7816083BF83B78D7FF4
:1006A00083BF83B7846083BF0895843090F4813022
:1006B00041F028F0823041F0833049F0089515BCB4
:1006C000089580E485BD089588E085BD089588E497
:1006D00085BD089564BD8530F0F58230F9F028F4C9
:1006E000882341F0813081F00895833009F184300E
:1006F00049F1089585B5816085BD85B58D7F85BD3E
:1007000085B58B7F85BD089585B58E7F85BD85B503
:10071000826085BD85B58B7F85BD089585B5816077
:1007200085BD85B5826085BD85B58B7F85BD089506
:1007300085B58E7F85BD85B58D7F85BD85B584608A
:1007400085BD089585B5816085BD85B58D7F85BDE5
:1007500085B5846085BD089515BC0895F894FFCFD4
:00000001FF
